{
	"data": {
		"bytecode": {
			"linkReferences": {},
			"object": "60806040525f60015534801562000014575f80fd5b50620000c76040518060400160405280600b81526020017f5472756d7020546f7765720000000000000000000000000000000000000000008152506040518060400160405280601d81526020017f3732312d373235204669667468204176656e75652c204e6577596f726b0000008152506040518060400160405280600181526020017f31000000000000000000000000000000000000000000000000000000000000008152506200032560201b60201c565b6200015d6040518060400160405280600e81526020017f496d70657269616c20506c61636500000000000000000000000000000000000081525060405180606001604052806027815260200162001732602791396040518060400160405280600181526020017f31000000000000000000000000000000000000000000000000000000000000008152506200032560201b60201c565b620001f36040518060400160405280601081526020017f4d756e69636970616c204d61726b65740000000000000000000000000000000081525060405180606001604052806021815260200162001759602191396040518060400160405280600181526020017f31000000000000000000000000000000000000000000000000000000000000008152506200032560201b60201c565b620002896040518060400160405280600881526020017f50616e7468656f6e0000000000000000000000000000000000000000000000008152506040518060600160405280602181526020016200179d602191396040518060400160405280600181526020017f31000000000000000000000000000000000000000000000000000000000000008152506200032560201b60201c565b6200031f6040518060400160405280600e81526020017f4b72656d6c696e2050616c6163650000000000000000000000000000000000008152506040518060600160405280602381526020016200177a602391396040518060400160405280600181526020017f31000000000000000000000000000000000000000000000000000000000000008152506200032560201b60201c565b62000940565b60015f81548092919062000339906200047e565b91905055506040518060c0016040528060015481526020018481526020018381526020015f151581526020014281526020018281525060025f60015481526020019081526020015f205f820151815f01556020820151816001019081620003a1919062000725565b506040820151816002019081620003b9919062000725565b506060820151816003015f6101000a81548160ff0219169083151502179055506080820151816004015560a0820151816005019081620003fa919062000725565b509050507f150ef0f127cde5a4a55945ee27b38b5a6319b07c752c5ff0197ea246bdb8187d60015484845f42866040516200043b96959493929190620008c0565b60405180910390a1505050565b7f4e487b71000000000000000000000000000000000000000000000000000000005f52601160045260245ffd5b5f819050919050565b5f6200048a8262000475565b91507fffffffffffffffffffffffffffffffffffffffffffffffffffffffffffffffff8203620004bf57620004be62000448565b5b600182019050919050565b5f81519050919050565b7f4e487b71000000000000000000000000000000000000000000000000000000005f52604160045260245ffd5b7f4e487b71000000000000000000000000000000000000000000000000000000005f52602260045260245ffd5b5f60028204905060018216806200054657607f821691505b6020821081036200055c576200055b62000501565b5b50919050565b5f819050815f5260205f209050919050565b5f6020601f8301049050919050565b5f82821b905092915050565b5f60088302620005c07fffffffffffffffffffffffffffffffffffffffffffffffffffffffffffffffff8262000583565b620005cc868362000583565b95508019841693508086168417925050509392505050565b5f819050919050565b5f6200060d62000607620006018462000475565b620005e4565b62000475565b9050919050565b5f819050919050565b6200062883620005ed565b62000640620006378262000614565b8484546200058f565b825550505050565b5f90565b6200065662000648565b620006638184846200061d565b505050565b5b818110156200068a576200067e5f826200064c565b60018101905062000669565b5050565b601f821115620006d957620006a38162000562565b620006ae8462000574565b81016020851015620006be578190505b620006d6620006cd8562000574565b83018262000668565b50505b505050565b5f82821c905092915050565b5f620006fb5f1984600802620006de565b1980831691505092915050565b5f620007158383620006ea565b9150826002028217905092915050565b6200073082620004ca565b67ffffffffffffffff8111156200074c576200074b620004d4565b5b6200075882546200052e565b620007658282856200068e565b5f60209050601f8311600181146200079b575f841562000786578287015190505b62000792858262000708565b86555062000801565b601f198416620007ab8662000562565b5f5b82811015620007d457848901518255600182019150602085019450602081019050620007ad565b86831015620007f45784890151620007f0601f891682620006ea565b8355505b6001600288020188555050505b505050505050565b620008148162000475565b82525050565b5f82825260208201905092915050565b5f5b83811015620008495780820151818401526020810190506200082c565b5f8484015250505050565b5f601f19601f8301169050919050565b5f6200087082620004ca565b6200087c81856200081a565b93506200088e8185602086016200082a565b620008998162000854565b840191505092915050565b5f8115159050919050565b620008ba81620008a4565b82525050565b5f60c082019050620008d55f83018962000809565b8181036020830152620008e9818862000864565b90508181036040830152620008ff818762000864565b9050620009106060830186620008af565b6200091f608083018562000809565b81810360a083015262000933818462000864565b9050979650505050505050565b610de4806200094e5f395ff3fe608060405260043610610042575f3560e01c80631ea7c4451461004d5780633b8202aa146100755780638d97767214610091578063921c45ca146100d257610049565b3661004957005b5f80fd5b348015610058575f80fd5b50610073600480360381019061006e9190610818565b6100fc565b005b61008f600480360381019061008a91906108ef565b610215565b005b34801561009c575f80fd5b506100b760048036038101906100b291906108ef565b6104ef565b6040516100c9969594939291906109bd565b60405180910390f35b3480156100dd575f80fd5b506100e66106c5565b6040516100f39190610a31565b60405180910390f35b60015f81548092919061010e90610a77565b91905055506040518060c0016040528060015481526020018481526020018381526020015f151581526020014281526020018281525060025f60015481526020019081526020015f205f820151815f015560208201518160010190816101749190610cb8565b50604082015181600201908161018a9190610cb8565b506060820151816003015f6101000a81548160ff0219169083151502179055506080820151816004015560a08201518160050190816101c99190610cb8565b509050507f150ef0f127cde5a4a55945ee27b38b5a6319b07c752c5ff0197ea246bdb8187d60015484845f4286604051610208969594939291906109bd565b60405180910390a1505050565b5f60025f8381526020019081526020015f206040518060c00160405290815f820154815260200160018201805461024b90610aeb565b80601f016020809104026020016040519081016040528092919081815260200182805461027790610aeb565b80156102c25780601f10610299576101008083540402835291602001916102c2565b820191905f5260205f20905b8154815290600101906020018083116102a557829003601f168201915b505050505081526020016002820180546102db90610aeb565b80601f016020809104026020016040519081016040528092919081815260200182805461030790610aeb565b80156103525780601f1061032957610100808354040283529160200191610352565b820191905f5260205f20905b81548152906001019060200180831161033557829003601f168201915b50505050508152602001600382015f9054906101000a900460ff161515151581526020016004820154815260200160058201805461038f90610aeb565b80601f01602080910402602001604051908101604052809291908181526020018280546103bb90610aeb565b80156104065780601f106103dd57610100808354040283529160200191610406565b820191905f5260205f20905b8154815290600101906020018083116103e957829003601f168201915b50505050508152505090508060600151158160600190151590811515815250508060025f8481526020019081526020015f205f820151815f015560208201518160010190816104559190610cb8565b50604082015181600201908161046b9190610cb8565b506060820151816003015f6101000a81548160ff0219169083151502179055506080820151816004015560a08201518160050190816104aa9190610cb8565b509050507faa791b77c699d23e7e390bd7109b75830fa4b104f096fa209185109db4c9cbc58282606001516040516104e3929190610d87565b60405180910390a15050565b6002602052805f5260405f205f91509050805f01549080600101805461051490610aeb565b80601f016020809104026020016040519081016040528092919081815260200182805461054090610aeb565b801561058b5780601f106105625761010080835404028352916020019161058b565b820191905f5260205f20905b81548152906001019060200180831161056e57829003601f168201915b5050505050908060020180546105a090610aeb565b80601f01602080910402602001604051908101604052809291908181526020018280546105cc90610aeb565b80156106175780601f106105ee57610100808354040283529160200191610617565b820191905f5260205f20905b8154815290600101906020018083116105fa57829003601f168201915b505050505090806003015f9054906101000a900460ff169080600401549080600501805461064490610aeb565b80601f016020809104026020016040519081016040528092919081815260200182805461067090610aeb565b80156106bb5780601f10610692576101008083540402835291602001916106bb565b820191905f5260205f20905b81548152906001019060200180831161069e57829003601f168201915b5050505050905086565b60015481565b5f604051905090565b5f80fd5b5f80fd5b5f80fd5b5f80fd5b5f601f19601f8301169050919050565b7f4e487b71000000000000000000000000000000000000000000000000000000005f52604160045260245ffd5b61072a826106e4565b810181811067ffffffffffffffff82111715610749576107486106f4565b5b80604052505050565b5f61075b6106cb565b90506107678282610721565b919050565b5f67ffffffffffffffff821115610786576107856106f4565b5b61078f826106e4565b9050602081019050919050565b828183375f83830152505050565b5f6107bc6107b78461076c565b610752565b9050828152602081018484840111156107d8576107d76106e0565b5b6107e384828561079c565b509392505050565b5f82601f8301126107ff576107fe6106dc565b5b813561080f8482602086016107aa565b91505092915050565b5f805f6060848603121561082f5761082e6106d4565b5b5f84013567ffffffffffffffff81111561084c5761084b6106d8565b5b610858868287016107eb565b935050602084013567ffffffffffffffff811115610879576108786106d8565b5b610885868287016107eb565b925050604084013567ffffffffffffffff8111156108a6576108a56106d8565b5b6108b2868287016107eb565b9150509250925092565b5f819050919050565b6108ce816108bc565b81146108d8575f80fd5b50565b5f813590506108e9816108c5565b92915050565b5f60208284031215610904576109036106d4565b5b5f610911848285016108db565b91505092915050565b610923816108bc565b82525050565b5f81519050919050565b5f82825260208201905092915050565b5f5b83811015610960578082015181840152602081019050610945565b5f8484015250505050565b5f61097582610929565b61097f8185610933565b935061098f818560208601610943565b610998816106e4565b840191505092915050565b5f8115159050919050565b6109b7816109a3565b82525050565b5f60c0820190506109d05f83018961091a565b81810360208301526109e2818861096b565b905081810360408301526109f6818761096b565b9050610a0560608301866109ae565b610a12608083018561091a565b81810360a0830152610a24818461096b565b9050979650505050505050565b5f602082019050610a445f83018461091a565b92915050565b7f4e487b71000000000000000000000000000000000000000000000000000000005f52601160045260245ffd5b5f610a81826108bc565b91507fffffffffffffffffffffffffffffffffffffffffffffffffffffffffffffffff8203610ab357610ab2610a4a565b5b600182019050919050565b7f4e487b71000000000000000000000000000000000000000000000000000000005f52602260045260245ffd5b5f6002820490506001821680610b0257607f821691505b602082108103610b1557610b14610abe565b5b50919050565b5f819050815f5260205f209050919050565b5f6020601f8301049050919050565b5f82821b905092915050565b5f60088302610b777fffffffffffffffffffffffffffffffffffffffffffffffffffffffffffffffff82610b3c565b610b818683610b3c565b95508019841693508086168417925050509392505050565b5f819050919050565b5f610bbc610bb7610bb2846108bc565b610b99565b6108bc565b9050919050565b5f819050919050565b610bd583610ba2565b610be9610be182610bc3565b848454610b48565b825550505050565b5f90565b610bfd610bf1565b610c08818484610bcc565b505050565b5b81811015610c2b57610c205f82610bf5565b600181019050610c0e565b5050565b601f821115610c7057610c4181610b1b565b610c4a84610b2d565b81016020851015610c59578190505b610c6d610c6585610b2d565b830182610c0d565b50505b505050565b5f82821c905092915050565b5f610c905f1984600802610c75565b1980831691505092915050565b5f610ca88383610c81565b9150826002028217905092915050565b610cc182610929565b67ffffffffffffffff811115610cda57610cd96106f4565b5b610ce48254610aeb565b610cef828285610c2f565b5f60209050601f831160018114610d20575f8415610d0e578287015190505b610d188582610c9d565b865550610d7f565b601f198416610d2e86610b1b565b5f5b82811015610d5557848901518255600182019150602085019450602081019050610d30565b86831015610d725784890151610d6e601f891682610c81565b8355505b6001600288020188555050505b505050505050565b5f604082019050610d9a5f83018561091a565b610da760208301846109ae565b939250505056fea26469706673582212209a3c81659cfc8ba7cd723b93523d55300e384f799a6d9b2f1799c8f08822ea9464736f6c63430008160033312d3120436869796f64612c20436869796f646120436974792c20546f6b796f2c204a6170616e522e2064612043616e746172656972612c203330362c2053502c204272617a696c566f736476697a68656e6b61207374722e20312c204d6f73636f772c205275737369615069617a7a612064656c6c6120526f746f6e64612c20526f6d652c204974616c79",
			"opcodes": "PUSH1 0x80 PUSH1 0x40 MSTORE PUSH0 PUSH1 0x1 SSTORE CALLVALUE DUP1 ISZERO PUSH3 0x14 JUMPI PUSH0 DUP1 REVERT JUMPDEST POP PUSH3 0xC7 PUSH1 0x40 MLOAD DUP1 PUSH1 0x40 ADD PUSH1 0x40 MSTORE DUP1 PUSH1 0xB DUP2 MSTORE PUSH1 0x20 ADD PUSH32 0x5472756D7020546F776572000000000000000000000000000000000000000000 DUP2 MSTORE POP PUSH1 0x40 MLOAD DUP1 PUSH1 0x40 ADD PUSH1 0x40 MSTORE DUP1 PUSH1 0x1D DUP2 MSTORE PUSH1 0x20 ADD PUSH32 0x3732312D373235204669667468204176656E75652C204E6577596F726B000000 DUP2 MSTORE POP PUSH1 0x40 MLOAD DUP1 PUSH1 0x40 ADD PUSH1 0x40 MSTORE DUP1 PUSH1 0x1 DUP2 MSTORE PUSH1 0x20 ADD PUSH32 0x3100000000000000000000000000000000000000000000000000000000000000 DUP2 MSTORE POP PUSH3 0x325 PUSH1 0x20 SHL PUSH1 0x20 SHR JUMP JUMPDEST PUSH3 0x15D PUSH1 0x40 MLOAD DUP1 PUSH1 0x40 ADD PUSH1 0x40 MSTORE DUP1 PUSH1 0xE DUP2 MSTORE PUSH1 0x20 ADD PUSH32 0x496D70657269616C20506C616365000000000000000000000000000000000000 DUP2 MSTORE POP PUSH1 0x40 MLOAD DUP1 PUSH1 0x60 ADD PUSH1 0x40 MSTORE DUP1 PUSH1 0x27 DUP2 MSTORE PUSH1 0x20 ADD PUSH3 0x1732 PUSH1 0x27 SWAP2 CODECOPY PUSH1 0x40 MLOAD DUP1 PUSH1 0x40 ADD PUSH1 0x40 MSTORE DUP1 PUSH1 0x1 DUP2 MSTORE PUSH1 0x20 ADD PUSH32 0x3100000000000000000000000000000000000000000000000000000000000000 DUP2 MSTORE POP PUSH3 0x325 PUSH1 0x20 SHL PUSH1 0x20 SHR JUMP JUMPDEST PUSH3 0x1F3 PUSH1 0x40 MLOAD DUP1 PUSH1 0x40 ADD PUSH1 0x40 MSTORE DUP1 PUSH1 0x10 DUP2 MSTORE PUSH1 0x20 ADD PUSH32 0x4D756E69636970616C204D61726B657400000000000000000000000000000000 DUP2 MSTORE POP PUSH1 0x40 MLOAD DUP1 PUSH1 0x60 ADD PUSH1 0x40 MSTORE DUP1 PUSH1 0x21 DUP2 MSTORE PUSH1 0x20 ADD PUSH3 0x1759 PUSH1 0x21 SWAP2 CODECOPY PUSH1 0x40 MLOAD DUP1 PUSH1 0x40 ADD PUSH1 0x40 MSTORE DUP1 PUSH1 0x1 DUP2 MSTORE PUSH1 0x20 ADD PUSH32 0x3100000000000000000000000000000000000000000000000000000000000000 DUP2 MSTORE POP PUSH3 0x325 PUSH1 0x20 SHL PUSH1 0x20 SHR JUMP JUMPDEST PUSH3 0x289 PUSH1 0x40 MLOAD DUP1 PUSH1 0x40 ADD PUSH1 0x40 MSTORE DUP1 PUSH1 0x8 DUP2 MSTORE PUSH1 0x20 ADD PUSH32 0x50616E7468656F6E000000000000000000000000000000000000000000000000 DUP2 MSTORE POP PUSH1 0x40 MLOAD DUP1 PUSH1 0x60 ADD PUSH1 0x40 MSTORE DUP1 PUSH1 0x21 DUP2 MSTORE PUSH1 0x20 ADD PUSH3 0x179D PUSH1 0x21 SWAP2 CODECOPY PUSH1 0x40 MLOAD DUP1 PUSH1 0x40 ADD PUSH1 0x40 MSTORE DUP1 PUSH1 0x1 DUP2 MSTORE PUSH1 0x20 ADD PUSH32 0x3100000000000000000000000000000000000000000000000000000000000000 DUP2 MSTORE POP PUSH3 0x325 PUSH1 0x20 SHL PUSH1 0x20 SHR JUMP JUMPDEST PUSH3 0x31F PUSH1 0x40 MLOAD DUP1 PUSH1 0x40 ADD PUSH1 0x40 MSTORE DUP1 PUSH1 0xE DUP2 MSTORE PUSH1 0x20 ADD PUSH32 0x4B72656D6C696E2050616C616365000000000000000000000000000000000000 DUP2 MSTORE POP PUSH1 0x40 MLOAD DUP1 PUSH1 0x60 ADD PUSH1 0x40 MSTORE DUP1 PUSH1 0x23 DUP2 MSTORE PUSH1 0x20 ADD PUSH3 0x177A PUSH1 0x23 SWAP2 CODECOPY PUSH1 0x40 MLOAD DUP1 PUSH1 0x40 ADD PUSH1 0x40 MSTORE DUP1 PUSH1 0x1 DUP2 MSTORE PUSH1 0x20 ADD PUSH32 0x3100000000000000000000000000000000000000000000000000000000000000 DUP2 MSTORE POP PUSH3 0x325 PUSH1 0x20 SHL PUSH1 0x20 SHR JUMP JUMPDEST PUSH3 0x940 JUMP JUMPDEST PUSH1 0x1 PUSH0 DUP2 SLOAD DUP1 SWAP3 SWAP2 SWAP1 PUSH3 0x339 SWAP1 PUSH3 0x47E JUMP JUMPDEST SWAP2 SWAP1 POP SSTORE POP PUSH1 0x40 MLOAD DUP1 PUSH1 0xC0 ADD PUSH1 0x40 MSTORE DUP1 PUSH1 0x1 SLOAD DUP2 MSTORE PUSH1 0x20 ADD DUP5 DUP2 MSTORE PUSH1 0x20 ADD DUP4 DUP2 MSTORE PUSH1 0x20 ADD PUSH0 ISZERO ISZERO DUP2 MSTORE PUSH1 0x20 ADD TIMESTAMP DUP2 MSTORE PUSH1 0x20 ADD DUP3 DUP2 MSTORE POP PUSH1 0x2 PUSH0 PUSH1 0x1 SLOAD DUP2 MSTORE PUSH1 0x20 ADD SWAP1 DUP2 MSTORE PUSH1 0x20 ADD PUSH0 KECCAK256 PUSH0 DUP3 ADD MLOAD DUP2 PUSH0 ADD SSTORE PUSH1 0x20 DUP3 ADD MLOAD DUP2 PUSH1 0x1 ADD SWAP1 DUP2 PUSH3 0x3A1 SWAP2 SWAP1 PUSH3 0x725 JUMP JUMPDEST POP PUSH1 0x40 DUP3 ADD MLOAD DUP2 PUSH1 0x2 ADD SWAP1 DUP2 PUSH3 0x3B9 SWAP2 SWAP1 PUSH3 0x725 JUMP JUMPDEST POP PUSH1 0x60 DUP3 ADD MLOAD DUP2 PUSH1 0x3 ADD PUSH0 PUSH2 0x100 EXP DUP2 SLOAD DUP2 PUSH1 0xFF MUL NOT AND SWAP1 DUP4 ISZERO ISZERO MUL OR SWAP1 SSTORE POP PUSH1 0x80 DUP3 ADD MLOAD DUP2 PUSH1 0x4 ADD SSTORE PUSH1 0xA0 DUP3 ADD MLOAD DUP2 PUSH1 0x5 ADD SWAP1 DUP2 PUSH3 0x3FA SWAP2 SWAP1 PUSH3 0x725 JUMP JUMPDEST POP SWAP1 POP POP PUSH32 0x150EF0F127CDE5A4A55945EE27B38B5A6319B07C752C5FF0197EA246BDB8187D PUSH1 0x1 SLOAD DUP5 DUP5 PUSH0 TIMESTAMP DUP7 PUSH1 0x40 MLOAD PUSH3 0x43B SWAP7 SWAP6 SWAP5 SWAP4 SWAP3 SWAP2 SWAP1 PUSH3 0x8C0 JUMP JUMPDEST PUSH1 0x40 MLOAD DUP1 SWAP2 SUB SWAP1 LOG1 POP POP POP JUMP JUMPDEST PUSH32 0x4E487B7100000000000000000000000000000000000000000000000000000000 PUSH0 MSTORE PUSH1 0x11 PUSH1 0x4 MSTORE PUSH1 0x24 PUSH0 REVERT JUMPDEST PUSH0 DUP2 SWAP1 POP SWAP2 SWAP1 POP JUMP JUMPDEST PUSH0 PUSH3 0x48A DUP3 PUSH3 0x475 JUMP JUMPDEST SWAP2 POP PUSH32 0xFFFFFFFFFFFFFFFFFFFFFFFFFFFFFFFFFFFFFFFFFFFFFFFFFFFFFFFFFFFFFFFF DUP3 SUB PUSH3 0x4BF JUMPI PUSH3 0x4BE PUSH3 0x448 JUMP JUMPDEST JUMPDEST PUSH1 0x1 DUP3 ADD SWAP1 POP SWAP2 SWAP1 POP JUMP JUMPDEST PUSH0 DUP2 MLOAD SWAP1 POP SWAP2 SWAP1 POP JUMP JUMPDEST PUSH32 0x4E487B7100000000000000000000000000000000000000000000000000000000 PUSH0 MSTORE PUSH1 0x41 PUSH1 0x4 MSTORE PUSH1 0x24 PUSH0 REVERT JUMPDEST PUSH32 0x4E487B7100000000000000000000000000000000000000000000000000000000 PUSH0 MSTORE PUSH1 0x22 PUSH1 0x4 MSTORE PUSH1 0x24 PUSH0 REVERT JUMPDEST PUSH0 PUSH1 0x2 DUP3 DIV SWAP1 POP PUSH1 0x1 DUP3 AND DUP1 PUSH3 0x546 JUMPI PUSH1 0x7F DUP3 AND SWAP2 POP JUMPDEST PUSH1 0x20 DUP3 LT DUP2 SUB PUSH3 0x55C JUMPI PUSH3 0x55B PUSH3 0x501 JUMP JUMPDEST JUMPDEST POP SWAP2 SWAP1 POP JUMP JUMPDEST PUSH0 DUP2 SWAP1 POP DUP2 PUSH0 MSTORE PUSH1 0x20 PUSH0 KECCAK256 SWAP1 POP SWAP2 SWAP1 POP JUMP JUMPDEST PUSH0 PUSH1 0x20 PUSH1 0x1F DUP4 ADD DIV SWAP1 POP SWAP2 SWAP1 POP JUMP JUMPDEST PUSH0 DUP3 DUP3 SHL SWAP1 POP SWAP3 SWAP2 POP POP JUMP JUMPDEST PUSH0 PUSH1 0x8 DUP4 MUL PUSH3 0x5C0 PUSH32 0xFFFFFFFFFFFFFFFFFFFFFFFFFFFFFFFFFFFFFFFFFFFFFFFFFFFFFFFFFFFFFFFF DUP3 PUSH3 0x583 JUMP JUMPDEST PUSH3 0x5CC DUP7 DUP4 PUSH3 0x583 JUMP JUMPDEST SWAP6 POP DUP1 NOT DUP5 AND SWAP4 POP DUP1 DUP7 AND DUP5 OR SWAP3 POP POP POP SWAP4 SWAP3 POP POP POP JUMP JUMPDEST PUSH0 DUP2 SWAP1 POP SWAP2 SWAP1 POP JUMP JUMPDEST PUSH0 PUSH3 0x60D PUSH3 0x607 PUSH3 0x601 DUP5 PUSH3 0x475 JUMP JUMPDEST PUSH3 0x5E4 JUMP JUMPDEST PUSH3 0x475 JUMP JUMPDEST SWAP1 POP SWAP2 SWAP1 POP JUMP JUMPDEST PUSH0 DUP2 SWAP1 POP SWAP2 SWAP1 POP JUMP JUMPDEST PUSH3 0x628 DUP4 PUSH3 0x5ED JUMP JUMPDEST PUSH3 0x640 PUSH3 0x637 DUP3 PUSH3 0x614 JUMP JUMPDEST DUP5 DUP5 SLOAD PUSH3 0x58F JUMP JUMPDEST DUP3 SSTORE POP POP POP POP JUMP JUMPDEST PUSH0 SWAP1 JUMP JUMPDEST PUSH3 0x656 PUSH3 0x648 JUMP JUMPDEST PUSH3 0x663 DUP2 DUP5 DUP5 PUSH3 0x61D JUMP JUMPDEST POP POP POP JUMP JUMPDEST JUMPDEST DUP2 DUP2 LT ISZERO PUSH3 0x68A JUMPI PUSH3 0x67E PUSH0 DUP3 PUSH3 0x64C JUMP JUMPDEST PUSH1 0x1 DUP2 ADD SWAP1 POP PUSH3 0x669 JUMP JUMPDEST POP POP JUMP JUMPDEST PUSH1 0x1F DUP3 GT ISZERO PUSH3 0x6D9 JUMPI PUSH3 0x6A3 DUP2 PUSH3 0x562 JUMP JUMPDEST PUSH3 0x6AE DUP5 PUSH3 0x574 JUMP JUMPDEST DUP2 ADD PUSH1 0x20 DUP6 LT ISZERO PUSH3 0x6BE JUMPI DUP2 SWAP1 POP JUMPDEST PUSH3 0x6D6 PUSH3 0x6CD DUP6 PUSH3 0x574 JUMP JUMPDEST DUP4 ADD DUP3 PUSH3 0x668 JUMP JUMPDEST POP POP JUMPDEST POP POP POP JUMP JUMPDEST PUSH0 DUP3 DUP3 SHR SWAP1 POP SWAP3 SWAP2 POP POP JUMP JUMPDEST PUSH0 PUSH3 0x6FB PUSH0 NOT DUP5 PUSH1 0x8 MUL PUSH3 0x6DE JUMP JUMPDEST NOT DUP1 DUP4 AND SWAP2 POP POP SWAP3 SWAP2 POP POP JUMP JUMPDEST PUSH0 PUSH3 0x715 DUP4 DUP4 PUSH3 0x6EA JUMP JUMPDEST SWAP2 POP DUP3 PUSH1 0x2 MUL DUP3 OR SWAP1 POP SWAP3 SWAP2 POP POP JUMP JUMPDEST PUSH3 0x730 DUP3 PUSH3 0x4CA JUMP JUMPDEST PUSH8 0xFFFFFFFFFFFFFFFF DUP2 GT ISZERO PUSH3 0x74C JUMPI PUSH3 0x74B PUSH3 0x4D4 JUMP JUMPDEST JUMPDEST PUSH3 0x758 DUP3 SLOAD PUSH3 0x52E JUMP JUMPDEST PUSH3 0x765 DUP3 DUP3 DUP6 PUSH3 0x68E JUMP JUMPDEST PUSH0 PUSH1 0x20 SWAP1 POP PUSH1 0x1F DUP4 GT PUSH1 0x1 DUP2 EQ PUSH3 0x79B JUMPI PUSH0 DUP5 ISZERO PUSH3 0x786 JUMPI DUP3 DUP8 ADD MLOAD SWAP1 POP JUMPDEST PUSH3 0x792 DUP6 DUP3 PUSH3 0x708 JUMP JUMPDEST DUP7 SSTORE POP PUSH3 0x801 JUMP JUMPDEST PUSH1 0x1F NOT DUP5 AND PUSH3 0x7AB DUP7 PUSH3 0x562 JUMP JUMPDEST PUSH0 JUMPDEST DUP3 DUP2 LT ISZERO PUSH3 0x7D4 JUMPI DUP5 DUP10 ADD MLOAD DUP3 SSTORE PUSH1 0x1 DUP3 ADD SWAP2 POP PUSH1 0x20 DUP6 ADD SWAP5 POP PUSH1 0x20 DUP2 ADD SWAP1 POP PUSH3 0x7AD JUMP JUMPDEST DUP7 DUP4 LT ISZERO PUSH3 0x7F4 JUMPI DUP5 DUP10 ADD MLOAD PUSH3 0x7F0 PUSH1 0x1F DUP10 AND DUP3 PUSH3 0x6EA JUMP JUMPDEST DUP4 SSTORE POP JUMPDEST PUSH1 0x1 PUSH1 0x2 DUP9 MUL ADD DUP9 SSTORE POP POP POP JUMPDEST POP POP POP POP POP POP JUMP JUMPDEST PUSH3 0x814 DUP2 PUSH3 0x475 JUMP JUMPDEST DUP3 MSTORE POP POP JUMP JUMPDEST PUSH0 DUP3 DUP3 MSTORE PUSH1 0x20 DUP3 ADD SWAP1 POP SWAP3 SWAP2 POP POP JUMP JUMPDEST PUSH0 JUMPDEST DUP4 DUP2 LT ISZERO PUSH3 0x849 JUMPI DUP1 DUP3 ADD MLOAD DUP2 DUP5 ADD MSTORE PUSH1 0x20 DUP2 ADD SWAP1 POP PUSH3 0x82C JUMP JUMPDEST PUSH0 DUP5 DUP5 ADD MSTORE POP POP POP POP JUMP JUMPDEST PUSH0 PUSH1 0x1F NOT PUSH1 0x1F DUP4 ADD AND SWAP1 POP SWAP2 SWAP1 POP JUMP JUMPDEST PUSH0 PUSH3 0x870 DUP3 PUSH3 0x4CA JUMP JUMPDEST PUSH3 0x87C DUP2 DUP6 PUSH3 0x81A JUMP JUMPDEST SWAP4 POP PUSH3 0x88E DUP2 DUP6 PUSH1 0x20 DUP7 ADD PUSH3 0x82A JUMP JUMPDEST PUSH3 0x899 DUP2 PUSH3 0x854 JUMP JUMPDEST DUP5 ADD SWAP2 POP POP SWAP3 SWAP2 POP POP JUMP JUMPDEST PUSH0 DUP2 ISZERO ISZERO SWAP1 POP SWAP2 SWAP1 POP JUMP JUMPDEST PUSH3 0x8BA DUP2 PUSH3 0x8A4 JUMP JUMPDEST DUP3 MSTORE POP POP JUMP JUMPDEST PUSH0 PUSH1 0xC0 DUP3 ADD SWAP1 POP PUSH3 0x8D5 PUSH0 DUP4 ADD DUP10 PUSH3 0x809 JUMP JUMPDEST DUP2 DUP2 SUB PUSH1 0x20 DUP4 ADD MSTORE PUSH3 0x8E9 DUP2 DUP9 PUSH3 0x864 JUMP JUMPDEST SWAP1 POP DUP2 DUP2 SUB PUSH1 0x40 DUP4 ADD MSTORE PUSH3 0x8FF DUP2 DUP8 PUSH3 0x864 JUMP JUMPDEST SWAP1 POP PUSH3 0x910 PUSH1 0x60 DUP4 ADD DUP7 PUSH3 0x8AF JUMP JUMPDEST PUSH3 0x91F PUSH1 0x80 DUP4 ADD DUP6 PUSH3 0x809 JUMP JUMPDEST DUP2 DUP2 SUB PUSH1 0xA0 DUP4 ADD MSTORE PUSH3 0x933 DUP2 DUP5 PUSH3 0x864 JUMP JUMPDEST SWAP1 POP SWAP8 SWAP7 POP POP POP POP POP POP POP JUMP JUMPDEST PUSH2 0xDE4 DUP1 PUSH3 0x94E PUSH0 CODECOPY PUSH0 RETURN INVALID PUSH1 0x80 PUSH1 0x40 MSTORE PUSH1 0x4 CALLDATASIZE LT PUSH2 0x42 JUMPI PUSH0 CALLDATALOAD PUSH1 0xE0 SHR DUP1 PUSH4 0x1EA7C445 EQ PUSH2 0x4D JUMPI DUP1 PUSH4 0x3B8202AA EQ PUSH2 0x75 JUMPI DUP1 PUSH4 0x8D977672 EQ PUSH2 0x91 JUMPI DUP1 PUSH4 0x921C45CA EQ PUSH2 0xD2 JUMPI PUSH2 0x49 JUMP JUMPDEST CALLDATASIZE PUSH2 0x49 JUMPI STOP JUMPDEST PUSH0 DUP1 REVERT JUMPDEST CALLVALUE DUP1 ISZERO PUSH2 0x58 JUMPI PUSH0 DUP1 REVERT JUMPDEST POP PUSH2 0x73 PUSH1 0x4 DUP1 CALLDATASIZE SUB DUP2 ADD SWAP1 PUSH2 0x6E SWAP2 SWAP1 PUSH2 0x818 JUMP JUMPDEST PUSH2 0xFC JUMP JUMPDEST STOP JUMPDEST PUSH2 0x8F PUSH1 0x4 DUP1 CALLDATASIZE SUB DUP2 ADD SWAP1 PUSH2 0x8A SWAP2 SWAP1 PUSH2 0x8EF JUMP JUMPDEST PUSH2 0x215 JUMP JUMPDEST STOP JUMPDEST CALLVALUE DUP1 ISZERO PUSH2 0x9C JUMPI PUSH0 DUP1 REVERT JUMPDEST POP PUSH2 0xB7 PUSH1 0x4 DUP1 CALLDATASIZE SUB DUP2 ADD SWAP1 PUSH2 0xB2 SWAP2 SWAP1 PUSH2 0x8EF JUMP JUMPDEST PUSH2 0x4EF JUMP JUMPDEST PUSH1 0x40 MLOAD PUSH2 0xC9 SWAP7 SWAP6 SWAP5 SWAP4 SWAP3 SWAP2 SWAP1 PUSH2 0x9BD JUMP JUMPDEST PUSH1 0x40 MLOAD DUP1 SWAP2 SUB SWAP1 RETURN JUMPDEST CALLVALUE DUP1 ISZERO PUSH2 0xDD JUMPI PUSH0 DUP1 REVERT JUMPDEST POP PUSH2 0xE6 PUSH2 0x6C5 JUMP JUMPDEST PUSH1 0x40 MLOAD PUSH2 0xF3 SWAP2 SWAP1 PUSH2 0xA31 JUMP JUMPDEST PUSH1 0x40 MLOAD DUP1 SWAP2 SUB SWAP1 RETURN JUMPDEST PUSH1 0x1 PUSH0 DUP2 SLOAD DUP1 SWAP3 SWAP2 SWAP1 PUSH2 0x10E SWAP1 PUSH2 0xA77 JUMP JUMPDEST SWAP2 SWAP1 POP SSTORE POP PUSH1 0x40 MLOAD DUP1 PUSH1 0xC0 ADD PUSH1 0x40 MSTORE DUP1 PUSH1 0x1 SLOAD DUP2 MSTORE PUSH1 0x20 ADD DUP5 DUP2 MSTORE PUSH1 0x20 ADD DUP4 DUP2 MSTORE PUSH1 0x20 ADD PUSH0 ISZERO ISZERO DUP2 MSTORE PUSH1 0x20 ADD TIMESTAMP DUP2 MSTORE PUSH1 0x20 ADD DUP3 DUP2 MSTORE POP PUSH1 0x2 PUSH0 PUSH1 0x1 SLOAD DUP2 MSTORE PUSH1 0x20 ADD SWAP1 DUP2 MSTORE PUSH1 0x20 ADD PUSH0 KECCAK256 PUSH0 DUP3 ADD MLOAD DUP2 PUSH0 ADD SSTORE PUSH1 0x20 DUP3 ADD MLOAD DUP2 PUSH1 0x1 ADD SWAP1 DUP2 PUSH2 0x174 SWAP2 SWAP1 PUSH2 0xCB8 JUMP JUMPDEST POP PUSH1 0x40 DUP3 ADD MLOAD DUP2 PUSH1 0x2 ADD SWAP1 DUP2 PUSH2 0x18A SWAP2 SWAP1 PUSH2 0xCB8 JUMP JUMPDEST POP PUSH1 0x60 DUP3 ADD MLOAD DUP2 PUSH1 0x3 ADD PUSH0 PUSH2 0x100 EXP DUP2 SLOAD DUP2 PUSH1 0xFF MUL NOT AND SWAP1 DUP4 ISZERO ISZERO MUL OR SWAP1 SSTORE POP PUSH1 0x80 DUP3 ADD MLOAD DUP2 PUSH1 0x4 ADD SSTORE PUSH1 0xA0 DUP3 ADD MLOAD DUP2 PUSH1 0x5 ADD SWAP1 DUP2 PUSH2 0x1C9 SWAP2 SWAP1 PUSH2 0xCB8 JUMP JUMPDEST POP SWAP1 POP POP PUSH32 0x150EF0F127CDE5A4A55945EE27B38B5A6319B07C752C5FF0197EA246BDB8187D PUSH1 0x1 SLOAD DUP5 DUP5 PUSH0 TIMESTAMP DUP7 PUSH1 0x40 MLOAD PUSH2 0x208 SWAP7 SWAP6 SWAP5 SWAP4 SWAP3 SWAP2 SWAP1 PUSH2 0x9BD JUMP JUMPDEST PUSH1 0x40 MLOAD DUP1 SWAP2 SUB SWAP1 LOG1 POP POP POP JUMP JUMPDEST PUSH0 PUSH1 0x2 PUSH0 DUP4 DUP2 MSTORE PUSH1 0x20 ADD SWAP1 DUP2 MSTORE PUSH1 0x20 ADD PUSH0 KECCAK256 PUSH1 0x40 MLOAD DUP1 PUSH1 0xC0 ADD PUSH1 0x40 MSTORE SWAP1 DUP2 PUSH0 DUP3 ADD SLOAD DUP2 MSTORE PUSH1 0x20 ADD PUSH1 0x1 DUP3 ADD DUP1 SLOAD PUSH2 0x24B SWAP1 PUSH2 0xAEB JUMP JUMPDEST DUP1 PUSH1 0x1F ADD PUSH1 0x20 DUP1 SWAP2 DIV MUL PUSH1 0x20 ADD PUSH1 0x40 MLOAD SWAP1 DUP2 ADD PUSH1 0x40 MSTORE DUP1 SWAP3 SWAP2 SWAP1 DUP2 DUP2 MSTORE PUSH1 0x20 ADD DUP3 DUP1 SLOAD PUSH2 0x277 SWAP1 PUSH2 0xAEB JUMP JUMPDEST DUP1 ISZERO PUSH2 0x2C2 JUMPI DUP1 PUSH1 0x1F LT PUSH2 0x299 JUMPI PUSH2 0x100 DUP1 DUP4 SLOAD DIV MUL DUP4 MSTORE SWAP2 PUSH1 0x20 ADD SWAP2 PUSH2 0x2C2 JUMP JUMPDEST DUP3 ADD SWAP2 SWAP1 PUSH0 MSTORE PUSH1 0x20 PUSH0 KECCAK256 SWAP1 JUMPDEST DUP2 SLOAD DUP2 MSTORE SWAP1 PUSH1 0x1 ADD SWAP1 PUSH1 0x20 ADD DUP1 DUP4 GT PUSH2 0x2A5 JUMPI DUP3 SWAP1 SUB PUSH1 0x1F AND DUP3 ADD SWAP2 JUMPDEST POP POP POP POP POP DUP2 MSTORE PUSH1 0x20 ADD PUSH1 0x2 DUP3 ADD DUP1 SLOAD PUSH2 0x2DB SWAP1 PUSH2 0xAEB JUMP JUMPDEST DUP1 PUSH1 0x1F ADD PUSH1 0x20 DUP1 SWAP2 DIV MUL PUSH1 0x20 ADD PUSH1 0x40 MLOAD SWAP1 DUP2 ADD PUSH1 0x40 MSTORE DUP1 SWAP3 SWAP2 SWAP1 DUP2 DUP2 MSTORE PUSH1 0x20 ADD DUP3 DUP1 SLOAD PUSH2 0x307 SWAP1 PUSH2 0xAEB JUMP JUMPDEST DUP1 ISZERO PUSH2 0x352 JUMPI DUP1 PUSH1 0x1F LT PUSH2 0x329 JUMPI PUSH2 0x100 DUP1 DUP4 SLOAD DIV MUL DUP4 MSTORE SWAP2 PUSH1 0x20 ADD SWAP2 PUSH2 0x352 JUMP JUMPDEST DUP3 ADD SWAP2 SWAP1 PUSH0 MSTORE PUSH1 0x20 PUSH0 KECCAK256 SWAP1 JUMPDEST DUP2 SLOAD DUP2 MSTORE SWAP1 PUSH1 0x1 ADD SWAP1 PUSH1 0x20 ADD DUP1 DUP4 GT PUSH2 0x335 JUMPI DUP3 SWAP1 SUB PUSH1 0x1F AND DUP3 ADD SWAP2 JUMPDEST POP POP POP POP POP DUP2 MSTORE PUSH1 0x20 ADD PUSH1 0x3 DUP3 ADD PUSH0 SWAP1 SLOAD SWAP1 PUSH2 0x100 EXP SWAP1 DIV PUSH1 0xFF AND ISZERO ISZERO ISZERO ISZERO DUP2 MSTORE PUSH1 0x20 ADD PUSH1 0x4 DUP3 ADD SLOAD DUP2 MSTORE PUSH1 0x20 ADD PUSH1 0x5 DUP3 ADD DUP1 SLOAD PUSH2 0x38F SWAP1 PUSH2 0xAEB JUMP JUMPDEST DUP1 PUSH1 0x1F ADD PUSH1 0x20 DUP1 SWAP2 DIV MUL PUSH1 0x20 ADD PUSH1 0x40 MLOAD SWAP1 DUP2 ADD PUSH1 0x40 MSTORE DUP1 SWAP3 SWAP2 SWAP1 DUP2 DUP2 MSTORE PUSH1 0x20 ADD DUP3 DUP1 SLOAD PUSH2 0x3BB SWAP1 PUSH2 0xAEB JUMP JUMPDEST DUP1 ISZERO PUSH2 0x406 JUMPI DUP1 PUSH1 0x1F LT PUSH2 0x3DD JUMPI PUSH2 0x100 DUP1 DUP4 SLOAD DIV MUL DUP4 MSTORE SWAP2 PUSH1 0x20 ADD SWAP2 PUSH2 0x406 JUMP JUMPDEST DUP3 ADD SWAP2 SWAP1 PUSH0 MSTORE PUSH1 0x20 PUSH0 KECCAK256 SWAP1 JUMPDEST DUP2 SLOAD DUP2 MSTORE SWAP1 PUSH1 0x1 ADD SWAP1 PUSH1 0x20 ADD DUP1 DUP4 GT PUSH2 0x3E9 JUMPI DUP3 SWAP1 SUB PUSH1 0x1F AND DUP3 ADD SWAP2 JUMPDEST POP POP POP POP POP DUP2 MSTORE POP POP SWAP1 POP DUP1 PUSH1 0x60 ADD MLOAD ISZERO DUP2 PUSH1 0x60 ADD SWAP1 ISZERO ISZERO SWAP1 DUP2 ISZERO ISZERO DUP2 MSTORE POP POP DUP1 PUSH1 0x2 PUSH0 DUP5 DUP2 MSTORE PUSH1 0x20 ADD SWAP1 DUP2 MSTORE PUSH1 0x20 ADD PUSH0 KECCAK256 PUSH0 DUP3 ADD MLOAD DUP2 PUSH0 ADD SSTORE PUSH1 0x20 DUP3 ADD MLOAD DUP2 PUSH1 0x1 ADD SWAP1 DUP2 PUSH2 0x455 SWAP2 SWAP1 PUSH2 0xCB8 JUMP JUMPDEST POP PUSH1 0x40 DUP3 ADD MLOAD DUP2 PUSH1 0x2 ADD SWAP1 DUP2 PUSH2 0x46B SWAP2 SWAP1 PUSH2 0xCB8 JUMP JUMPDEST POP PUSH1 0x60 DUP3 ADD MLOAD DUP2 PUSH1 0x3 ADD PUSH0 PUSH2 0x100 EXP DUP2 SLOAD DUP2 PUSH1 0xFF MUL NOT AND SWAP1 DUP4 ISZERO ISZERO MUL OR SWAP1 SSTORE POP PUSH1 0x80 DUP3 ADD MLOAD DUP2 PUSH1 0x4 ADD SSTORE PUSH1 0xA0 DUP3 ADD MLOAD DUP2 PUSH1 0x5 ADD SWAP1 DUP2 PUSH2 0x4AA SWAP2 SWAP1 PUSH2 0xCB8 JUMP JUMPDEST POP SWAP1 POP POP PUSH32 0xAA791B77C699D23E7E390BD7109B75830FA4B104F096FA209185109DB4C9CBC5 DUP3 DUP3 PUSH1 0x60 ADD MLOAD PUSH1 0x40 MLOAD PUSH2 0x4E3 SWAP3 SWAP2 SWAP1 PUSH2 0xD87 JUMP JUMPDEST PUSH1 0x40 MLOAD DUP1 SWAP2 SUB SWAP1 LOG1 POP POP JUMP JUMPDEST PUSH1 0x2 PUSH1 0x20 MSTORE DUP1 PUSH0 MSTORE PUSH1 0x40 PUSH0 KECCAK256 PUSH0 SWAP2 POP SWAP1 POP DUP1 PUSH0 ADD SLOAD SWAP1 DUP1 PUSH1 0x1 ADD DUP1 SLOAD PUSH2 0x514 SWAP1 PUSH2 0xAEB JUMP JUMPDEST DUP1 PUSH1 0x1F ADD PUSH1 0x20 DUP1 SWAP2 DIV MUL PUSH1 0x20 ADD PUSH1 0x40 MLOAD SWAP1 DUP2 ADD PUSH1 0x40 MSTORE DUP1 SWAP3 SWAP2 SWAP1 DUP2 DUP2 MSTORE PUSH1 0x20 ADD DUP3 DUP1 SLOAD PUSH2 0x540 SWAP1 PUSH2 0xAEB JUMP JUMPDEST DUP1 ISZERO PUSH2 0x58B JUMPI DUP1 PUSH1 0x1F LT PUSH2 0x562 JUMPI PUSH2 0x100 DUP1 DUP4 SLOAD DIV MUL DUP4 MSTORE SWAP2 PUSH1 0x20 ADD SWAP2 PUSH2 0x58B JUMP JUMPDEST DUP3 ADD SWAP2 SWAP1 PUSH0 MSTORE PUSH1 0x20 PUSH0 KECCAK256 SWAP1 JUMPDEST DUP2 SLOAD DUP2 MSTORE SWAP1 PUSH1 0x1 ADD SWAP1 PUSH1 0x20 ADD DUP1 DUP4 GT PUSH2 0x56E JUMPI DUP3 SWAP1 SUB PUSH1 0x1F AND DUP3 ADD SWAP2 JUMPDEST POP POP POP POP POP SWAP1 DUP1 PUSH1 0x2 ADD DUP1 SLOAD PUSH2 0x5A0 SWAP1 PUSH2 0xAEB JUMP JUMPDEST DUP1 PUSH1 0x1F ADD PUSH1 0x20 DUP1 SWAP2 DIV MUL PUSH1 0x20 ADD PUSH1 0x40 MLOAD SWAP1 DUP2 ADD PUSH1 0x40 MSTORE DUP1 SWAP3 SWAP2 SWAP1 DUP2 DUP2 MSTORE PUSH1 0x20 ADD DUP3 DUP1 SLOAD PUSH2 0x5CC SWAP1 PUSH2 0xAEB JUMP JUMPDEST DUP1 ISZERO PUSH2 0x617 JUMPI DUP1 PUSH1 0x1F LT PUSH2 0x5EE JUMPI PUSH2 0x100 DUP1 DUP4 SLOAD DIV MUL DUP4 MSTORE SWAP2 PUSH1 0x20 ADD SWAP2 PUSH2 0x617 JUMP JUMPDEST DUP3 ADD SWAP2 SWAP1 PUSH0 MSTORE PUSH1 0x20 PUSH0 KECCAK256 SWAP1 JUMPDEST DUP2 SLOAD DUP2 MSTORE SWAP1 PUSH1 0x1 ADD SWAP1 PUSH1 0x20 ADD DUP1 DUP4 GT PUSH2 0x5FA JUMPI DUP3 SWAP1 SUB PUSH1 0x1F AND DUP3 ADD SWAP2 JUMPDEST POP POP POP POP POP SWAP1 DUP1 PUSH1 0x3 ADD PUSH0 SWAP1 SLOAD SWAP1 PUSH2 0x100 EXP SWAP1 DIV PUSH1 0xFF AND SWAP1 DUP1 PUSH1 0x4 ADD SLOAD SWAP1 DUP1 PUSH1 0x5 ADD DUP1 SLOAD PUSH2 0x644 SWAP1 PUSH2 0xAEB JUMP JUMPDEST DUP1 PUSH1 0x1F ADD PUSH1 0x20 DUP1 SWAP2 DIV MUL PUSH1 0x20 ADD PUSH1 0x40 MLOAD SWAP1 DUP2 ADD PUSH1 0x40 MSTORE DUP1 SWAP3 SWAP2 SWAP1 DUP2 DUP2 MSTORE PUSH1 0x20 ADD DUP3 DUP1 SLOAD PUSH2 0x670 SWAP1 PUSH2 0xAEB JUMP JUMPDEST DUP1 ISZERO PUSH2 0x6BB JUMPI DUP1 PUSH1 0x1F LT PUSH2 0x692 JUMPI PUSH2 0x100 DUP1 DUP4 SLOAD DIV MUL DUP4 MSTORE SWAP2 PUSH1 0x20 ADD SWAP2 PUSH2 0x6BB JUMP JUMPDEST DUP3 ADD SWAP2 SWAP1 PUSH0 MSTORE PUSH1 0x20 PUSH0 KECCAK256 SWAP1 JUMPDEST DUP2 SLOAD DUP2 MSTORE SWAP1 PUSH1 0x1 ADD SWAP1 PUSH1 0x20 ADD DUP1 DUP4 GT PUSH2 0x69E JUMPI DUP3 SWAP1 SUB PUSH1 0x1F AND DUP3 ADD SWAP2 JUMPDEST POP POP POP POP POP SWAP1 POP DUP7 JUMP JUMPDEST PUSH1 0x1 SLOAD DUP2 JUMP JUMPDEST PUSH0 PUSH1 0x40 MLOAD SWAP1 POP SWAP1 JUMP JUMPDEST PUSH0 DUP1 REVERT JUMPDEST PUSH0 DUP1 REVERT JUMPDEST PUSH0 DUP1 REVERT JUMPDEST PUSH0 DUP1 REVERT JUMPDEST PUSH0 PUSH1 0x1F NOT PUSH1 0x1F DUP4 ADD AND SWAP1 POP SWAP2 SWAP1 POP JUMP JUMPDEST PUSH32 0x4E487B7100000000000000000000000000000000000000000000000000000000 PUSH0 MSTORE PUSH1 0x41 PUSH1 0x4 MSTORE PUSH1 0x24 PUSH0 REVERT JUMPDEST PUSH2 0x72A DUP3 PUSH2 0x6E4 JUMP JUMPDEST DUP2 ADD DUP2 DUP2 LT PUSH8 0xFFFFFFFFFFFFFFFF DUP3 GT OR ISZERO PUSH2 0x749 JUMPI PUSH2 0x748 PUSH2 0x6F4 JUMP JUMPDEST JUMPDEST DUP1 PUSH1 0x40 MSTORE POP POP POP JUMP JUMPDEST PUSH0 PUSH2 0x75B PUSH2 0x6CB JUMP JUMPDEST SWAP1 POP PUSH2 0x767 DUP3 DUP3 PUSH2 0x721 JUMP JUMPDEST SWAP2 SWAP1 POP JUMP JUMPDEST PUSH0 PUSH8 0xFFFFFFFFFFFFFFFF DUP3 GT ISZERO PUSH2 0x786 JUMPI PUSH2 0x785 PUSH2 0x6F4 JUMP JUMPDEST JUMPDEST PUSH2 0x78F DUP3 PUSH2 0x6E4 JUMP JUMPDEST SWAP1 POP PUSH1 0x20 DUP2 ADD SWAP1 POP SWAP2 SWAP1 POP JUMP JUMPDEST DUP3 DUP2 DUP4 CALLDATACOPY PUSH0 DUP4 DUP4 ADD MSTORE POP POP POP JUMP JUMPDEST PUSH0 PUSH2 0x7BC PUSH2 0x7B7 DUP5 PUSH2 0x76C JUMP JUMPDEST PUSH2 0x752 JUMP JUMPDEST SWAP1 POP DUP3 DUP2 MSTORE PUSH1 0x20 DUP2 ADD DUP5 DUP5 DUP5 ADD GT ISZERO PUSH2 0x7D8 JUMPI PUSH2 0x7D7 PUSH2 0x6E0 JUMP JUMPDEST JUMPDEST PUSH2 0x7E3 DUP5 DUP3 DUP6 PUSH2 0x79C JUMP JUMPDEST POP SWAP4 SWAP3 POP POP POP JUMP JUMPDEST PUSH0 DUP3 PUSH1 0x1F DUP4 ADD SLT PUSH2 0x7FF JUMPI PUSH2 0x7FE PUSH2 0x6DC JUMP JUMPDEST JUMPDEST DUP2 CALLDATALOAD PUSH2 0x80F DUP5 DUP3 PUSH1 0x20 DUP7 ADD PUSH2 0x7AA JUMP JUMPDEST SWAP2 POP POP SWAP3 SWAP2 POP POP JUMP JUMPDEST PUSH0 DUP1 PUSH0 PUSH1 0x60 DUP5 DUP7 SUB SLT ISZERO PUSH2 0x82F JUMPI PUSH2 0x82E PUSH2 0x6D4 JUMP JUMPDEST JUMPDEST PUSH0 DUP5 ADD CALLDATALOAD PUSH8 0xFFFFFFFFFFFFFFFF DUP2 GT ISZERO PUSH2 0x84C JUMPI PUSH2 0x84B PUSH2 0x6D8 JUMP JUMPDEST JUMPDEST PUSH2 0x858 DUP7 DUP3 DUP8 ADD PUSH2 0x7EB JUMP JUMPDEST SWAP4 POP POP PUSH1 0x20 DUP5 ADD CALLDATALOAD PUSH8 0xFFFFFFFFFFFFFFFF DUP2 GT ISZERO PUSH2 0x879 JUMPI PUSH2 0x878 PUSH2 0x6D8 JUMP JUMPDEST JUMPDEST PUSH2 0x885 DUP7 DUP3 DUP8 ADD PUSH2 0x7EB JUMP JUMPDEST SWAP3 POP POP PUSH1 0x40 DUP5 ADD CALLDATALOAD PUSH8 0xFFFFFFFFFFFFFFFF DUP2 GT ISZERO PUSH2 0x8A6 JUMPI PUSH2 0x8A5 PUSH2 0x6D8 JUMP JUMPDEST JUMPDEST PUSH2 0x8B2 DUP7 DUP3 DUP8 ADD PUSH2 0x7EB JUMP JUMPDEST SWAP2 POP POP SWAP3 POP SWAP3 POP SWAP3 JUMP JUMPDEST PUSH0 DUP2 SWAP1 POP SWAP2 SWAP1 POP JUMP JUMPDEST PUSH2 0x8CE DUP2 PUSH2 0x8BC JUMP JUMPDEST DUP2 EQ PUSH2 0x8D8 JUMPI PUSH0 DUP1 REVERT JUMPDEST POP JUMP JUMPDEST PUSH0 DUP2 CALLDATALOAD SWAP1 POP PUSH2 0x8E9 DUP2 PUSH2 0x8C5 JUMP JUMPDEST SWAP3 SWAP2 POP POP JUMP JUMPDEST PUSH0 PUSH1 0x20 DUP3 DUP5 SUB SLT ISZERO PUSH2 0x904 JUMPI PUSH2 0x903 PUSH2 0x6D4 JUMP JUMPDEST JUMPDEST PUSH0 PUSH2 0x911 DUP5 DUP3 DUP6 ADD PUSH2 0x8DB JUMP JUMPDEST SWAP2 POP POP SWAP3 SWAP2 POP POP JUMP JUMPDEST PUSH2 0x923 DUP2 PUSH2 0x8BC JUMP JUMPDEST DUP3 MSTORE POP POP JUMP JUMPDEST PUSH0 DUP2 MLOAD SWAP1 POP SWAP2 SWAP1 POP JUMP JUMPDEST PUSH0 DUP3 DUP3 MSTORE PUSH1 0x20 DUP3 ADD SWAP1 POP SWAP3 SWAP2 POP POP JUMP JUMPDEST PUSH0 JUMPDEST DUP4 DUP2 LT ISZERO PUSH2 0x960 JUMPI DUP1 DUP3 ADD MLOAD DUP2 DUP5 ADD MSTORE PUSH1 0x20 DUP2 ADD SWAP1 POP PUSH2 0x945 JUMP JUMPDEST PUSH0 DUP5 DUP5 ADD MSTORE POP POP POP POP JUMP JUMPDEST PUSH0 PUSH2 0x975 DUP3 PUSH2 0x929 JUMP JUMPDEST PUSH2 0x97F DUP2 DUP6 PUSH2 0x933 JUMP JUMPDEST SWAP4 POP PUSH2 0x98F DUP2 DUP6 PUSH1 0x20 DUP7 ADD PUSH2 0x943 JUMP JUMPDEST PUSH2 0x998 DUP2 PUSH2 0x6E4 JUMP JUMPDEST DUP5 ADD SWAP2 POP POP SWAP3 SWAP2 POP POP JUMP JUMPDEST PUSH0 DUP2 ISZERO ISZERO SWAP1 POP SWAP2 SWAP1 POP JUMP JUMPDEST PUSH2 0x9B7 DUP2 PUSH2 0x9A3 JUMP JUMPDEST DUP3 MSTORE POP POP JUMP JUMPDEST PUSH0 PUSH1 0xC0 DUP3 ADD SWAP1 POP PUSH2 0x9D0 PUSH0 DUP4 ADD DUP10 PUSH2 0x91A JUMP JUMPDEST DUP2 DUP2 SUB PUSH1 0x20 DUP4 ADD MSTORE PUSH2 0x9E2 DUP2 DUP9 PUSH2 0x96B JUMP JUMPDEST SWAP1 POP DUP2 DUP2 SUB PUSH1 0x40 DUP4 ADD MSTORE PUSH2 0x9F6 DUP2 DUP8 PUSH2 0x96B JUMP JUMPDEST SWAP1 POP PUSH2 0xA05 PUSH1 0x60 DUP4 ADD DUP7 PUSH2 0x9AE JUMP JUMPDEST PUSH2 0xA12 PUSH1 0x80 DUP4 ADD DUP6 PUSH2 0x91A JUMP JUMPDEST DUP2 DUP2 SUB PUSH1 0xA0 DUP4 ADD MSTORE PUSH2 0xA24 DUP2 DUP5 PUSH2 0x96B JUMP JUMPDEST SWAP1 POP SWAP8 SWAP7 POP POP POP POP POP POP POP JUMP JUMPDEST PUSH0 PUSH1 0x20 DUP3 ADD SWAP1 POP PUSH2 0xA44 PUSH0 DUP4 ADD DUP5 PUSH2 0x91A JUMP JUMPDEST SWAP3 SWAP2 POP POP JUMP JUMPDEST PUSH32 0x4E487B7100000000000000000000000000000000000000000000000000000000 PUSH0 MSTORE PUSH1 0x11 PUSH1 0x4 MSTORE PUSH1 0x24 PUSH0 REVERT JUMPDEST PUSH0 PUSH2 0xA81 DUP3 PUSH2 0x8BC JUMP JUMPDEST SWAP2 POP PUSH32 0xFFFFFFFFFFFFFFFFFFFFFFFFFFFFFFFFFFFFFFFFFFFFFFFFFFFFFFFFFFFFFFFF DUP3 SUB PUSH2 0xAB3 JUMPI PUSH2 0xAB2 PUSH2 0xA4A JUMP JUMPDEST JUMPDEST PUSH1 0x1 DUP3 ADD SWAP1 POP SWAP2 SWAP1 POP JUMP JUMPDEST PUSH32 0x4E487B7100000000000000000000000000000000000000000000000000000000 PUSH0 MSTORE PUSH1 0x22 PUSH1 0x4 MSTORE PUSH1 0x24 PUSH0 REVERT JUMPDEST PUSH0 PUSH1 0x2 DUP3 DIV SWAP1 POP PUSH1 0x1 DUP3 AND DUP1 PUSH2 0xB02 JUMPI PUSH1 0x7F DUP3 AND SWAP2 POP JUMPDEST PUSH1 0x20 DUP3 LT DUP2 SUB PUSH2 0xB15 JUMPI PUSH2 0xB14 PUSH2 0xABE JUMP JUMPDEST JUMPDEST POP SWAP2 SWAP1 POP JUMP JUMPDEST PUSH0 DUP2 SWAP1 POP DUP2 PUSH0 MSTORE PUSH1 0x20 PUSH0 KECCAK256 SWAP1 POP SWAP2 SWAP1 POP JUMP JUMPDEST PUSH0 PUSH1 0x20 PUSH1 0x1F DUP4 ADD DIV SWAP1 POP SWAP2 SWAP1 POP JUMP JUMPDEST PUSH0 DUP3 DUP3 SHL SWAP1 POP SWAP3 SWAP2 POP POP JUMP JUMPDEST PUSH0 PUSH1 0x8 DUP4 MUL PUSH2 0xB77 PUSH32 0xFFFFFFFFFFFFFFFFFFFFFFFFFFFFFFFFFFFFFFFFFFFFFFFFFFFFFFFFFFFFFFFF DUP3 PUSH2 0xB3C JUMP JUMPDEST PUSH2 0xB81 DUP7 DUP4 PUSH2 0xB3C JUMP JUMPDEST SWAP6 POP DUP1 NOT DUP5 AND SWAP4 POP DUP1 DUP7 AND DUP5 OR SWAP3 POP POP POP SWAP4 SWAP3 POP POP POP JUMP JUMPDEST PUSH0 DUP2 SWAP1 POP SWAP2 SWAP1 POP JUMP JUMPDEST PUSH0 PUSH2 0xBBC PUSH2 0xBB7 PUSH2 0xBB2 DUP5 PUSH2 0x8BC JUMP JUMPDEST PUSH2 0xB99 JUMP JUMPDEST PUSH2 0x8BC JUMP JUMPDEST SWAP1 POP SWAP2 SWAP1 POP JUMP JUMPDEST PUSH0 DUP2 SWAP1 POP SWAP2 SWAP1 POP JUMP JUMPDEST PUSH2 0xBD5 DUP4 PUSH2 0xBA2 JUMP JUMPDEST PUSH2 0xBE9 PUSH2 0xBE1 DUP3 PUSH2 0xBC3 JUMP JUMPDEST DUP5 DUP5 SLOAD PUSH2 0xB48 JUMP JUMPDEST DUP3 SSTORE POP POP POP POP JUMP JUMPDEST PUSH0 SWAP1 JUMP JUMPDEST PUSH2 0xBFD PUSH2 0xBF1 JUMP JUMPDEST PUSH2 0xC08 DUP2 DUP5 DUP5 PUSH2 0xBCC JUMP JUMPDEST POP POP POP JUMP JUMPDEST JUMPDEST DUP2 DUP2 LT ISZERO PUSH2 0xC2B JUMPI PUSH2 0xC20 PUSH0 DUP3 PUSH2 0xBF5 JUMP JUMPDEST PUSH1 0x1 DUP2 ADD SWAP1 POP PUSH2 0xC0E JUMP JUMPDEST POP POP JUMP JUMPDEST PUSH1 0x1F DUP3 GT ISZERO PUSH2 0xC70 JUMPI PUSH2 0xC41 DUP2 PUSH2 0xB1B JUMP JUMPDEST PUSH2 0xC4A DUP5 PUSH2 0xB2D JUMP JUMPDEST DUP2 ADD PUSH1 0x20 DUP6 LT ISZERO PUSH2 0xC59 JUMPI DUP2 SWAP1 POP JUMPDEST PUSH2 0xC6D PUSH2 0xC65 DUP6 PUSH2 0xB2D JUMP JUMPDEST DUP4 ADD DUP3 PUSH2 0xC0D JUMP JUMPDEST POP POP JUMPDEST POP POP POP JUMP JUMPDEST PUSH0 DUP3 DUP3 SHR SWAP1 POP SWAP3 SWAP2 POP POP JUMP JUMPDEST PUSH0 PUSH2 0xC90 PUSH0 NOT DUP5 PUSH1 0x8 MUL PUSH2 0xC75 JUMP JUMPDEST NOT DUP1 DUP4 AND SWAP2 POP POP SWAP3 SWAP2 POP POP JUMP JUMPDEST PUSH0 PUSH2 0xCA8 DUP4 DUP4 PUSH2 0xC81 JUMP JUMPDEST SWAP2 POP DUP3 PUSH1 0x2 MUL DUP3 OR SWAP1 POP SWAP3 SWAP2 POP POP JUMP JUMPDEST PUSH2 0xCC1 DUP3 PUSH2 0x929 JUMP JUMPDEST PUSH8 0xFFFFFFFFFFFFFFFF DUP2 GT ISZERO PUSH2 0xCDA JUMPI PUSH2 0xCD9 PUSH2 0x6F4 JUMP JUMPDEST JUMPDEST PUSH2 0xCE4 DUP3 SLOAD PUSH2 0xAEB JUMP JUMPDEST PUSH2 0xCEF DUP3 DUP3 DUP6 PUSH2 0xC2F JUMP JUMPDEST PUSH0 PUSH1 0x20 SWAP1 POP PUSH1 0x1F DUP4 GT PUSH1 0x1 DUP2 EQ PUSH2 0xD20 JUMPI PUSH0 DUP5 ISZERO PUSH2 0xD0E JUMPI DUP3 DUP8 ADD MLOAD SWAP1 POP JUMPDEST PUSH2 0xD18 DUP6 DUP3 PUSH2 0xC9D JUMP JUMPDEST DUP7 SSTORE POP PUSH2 0xD7F JUMP JUMPDEST PUSH1 0x1F NOT DUP5 AND PUSH2 0xD2E DUP7 PUSH2 0xB1B JUMP JUMPDEST PUSH0 JUMPDEST DUP3 DUP2 LT ISZERO PUSH2 0xD55 JUMPI DUP5 DUP10 ADD MLOAD DUP3 SSTORE PUSH1 0x1 DUP3 ADD SWAP2 POP PUSH1 0x20 DUP6 ADD SWAP5 POP PUSH1 0x20 DUP2 ADD SWAP1 POP PUSH2 0xD30 JUMP JUMPDEST DUP7 DUP4 LT ISZERO PUSH2 0xD72 JUMPI DUP5 DUP10 ADD MLOAD PUSH2 0xD6E PUSH1 0x1F DUP10 AND DUP3 PUSH2 0xC81 JUMP JUMPDEST DUP4 SSTORE POP JUMPDEST PUSH1 0x1 PUSH1 0x2 DUP9 MUL ADD DUP9 SSTORE POP POP POP JUMPDEST POP POP POP POP POP POP JUMP JUMPDEST PUSH0 PUSH1 0x40 DUP3 ADD SWAP1 POP PUSH2 0xD9A PUSH0 DUP4 ADD DUP6 PUSH2 0x91A JUMP JUMPDEST PUSH2 0xDA7 PUSH1 0x20 DUP4 ADD DUP5 PUSH2 0x9AE JUMP JUMPDEST SWAP4 SWAP3 POP POP POP JUMP INVALID LOG2 PUSH5 0x6970667358 0x22 SLT KECCAK256 SWAP11 EXTCODECOPY DUP2 PUSH6 0x9CFC8BA7CD72 EXTCODESIZE SWAP4 MSTORE RETURNDATASIZE SSTORE ADDRESS 0xE CODESIZE 0x4F PUSH26 0x9A6D9B2F1799C8F08822EA9464736F6C63430008160033312D31 KECCAK256 NUMBER PUSH9 0x69796F64612C204368 PUSH10 0x796F646120436974792C KECCAK256 SLOAD PUSH16 0x6B796F2C204A6170616E522E20646120 NUMBER PUSH2 0x6E74 PUSH2 0x7265 PUSH10 0x72612C203330362C2053 POP 0x2C KECCAK256 TIMESTAMP PUSH19 0x617A696C566F736476697A68656E6B61207374 PUSH19 0x2E20312C204D6F73636F772C20527573736961 POP PUSH10 0x617A7A612064656C6C61 KECCAK256 MSTORE PUSH16 0x746F6E64612C20526F6D652C20497461 PUSH13 0x79000000000000000000000000 "
		},
		"gasEstimates": {
			"creation": {
				"codeDepositCost": "711200",
				"executionCost": "infinite",
				"totalCost": "infinite"
			},
			"external": {
				"createRoom(string,string,string)": "infinite",
				"roomCounter()": "2469",
				"roomUpdated(uint256)": "infinite",
				"tasks(uint256)": "infinite"
			}
		},
		"methodIdentifiers": {
			"createRoom(string,string,string)": "1ea7c445",
			"roomCounter()": "921c45ca",
			"roomUpdated(uint256)": "3b8202aa",
			"tasks(uint256)": "8d977672"
		}
	},
	"abi": [
		{
			"inputs": [],
			"stateMutability": "nonpayable",
			"type": "constructor"
		},
		{
			"anonymous": false,
			"inputs": [
				{
					"indexed": false,
					"internalType": "uint256",
					"name": "id",
					"type": "uint256"
				},
				{
					"indexed": false,
					"internalType": "string",
					"name": "name",
					"type": "string"
				},
				{
					"indexed": false,
					"internalType": "string",
					"name": "road",
					"type": "string"
				},
				{
					"indexed": false,
					"internalType": "bool",
					"name": "done",
					"type": "bool"
				},
				{
					"indexed": false,
					"internalType": "uint256",
					"name": "timestamp",
					"type": "uint256"
				},
				{
					"indexed": false,
					"internalType": "string",
					"name": "price",
					"type": "string"
				}
			],
			"name": "RoomCreated",
			"type": "event"
		},
		{
			"anonymous": false,
			"inputs": [
				{
					"indexed": false,
					"internalType": "uint256",
					"name": "id",
					"type": "uint256"
				},
				{
					"indexed": false,
					"internalType": "bool",
					"name": "done",
					"type": "bool"
				}
			],
			"name": "ToggledDone",
			"type": "event"
		},
		{
			"inputs": [
				{
					"internalType": "string",
					"name": "_name",
					"type": "string"
				},
				{
					"internalType": "string",
					"name": "_road",
					"type": "string"
				},
				{
					"internalType": "string",
					"name": "_price",
					"type": "string"
				}
			],
			"name": "createRoom",
			"outputs": [],
			"stateMutability": "nonpayable",
			"type": "function"
		},
		{
			"inputs": [],
			"name": "roomCounter",
			"outputs": [
				{
					"internalType": "uint256",
					"name": "",
					"type": "uint256"
				}
			],
			"stateMutability": "view",
			"type": "function"
		},
		{
			"inputs": [
				{
					"internalType": "uint256",
					"name": "_id",
					"type": "uint256"
				}
			],
			"name": "roomUpdated",
			"outputs": [],
			"stateMutability": "payable",
			"type": "function"
		},
		{
			"inputs": [
				{
					"internalType": "uint256",
					"name": "",
					"type": "uint256"
				}
			],
			"name": "tasks",
			"outputs": [
				{
					"internalType": "uint256",
					"name": "id",
					"type": "uint256"
				},
				{
					"internalType": "string",
					"name": "name",
					"type": "string"
				},
				{
					"internalType": "string",
					"name": "road",
					"type": "string"
				},
				{
					"internalType": "bool",
					"name": "done",
					"type": "bool"
				},
				{
					"internalType": "uint256",
					"name": "timestamp",
					"type": "uint256"
				},
				{
					"internalType": "string",
					"name": "price",
					"type": "string"
				}
			],
			"stateMutability": "view",
			"type": "function"
		},
		{
			"stateMutability": "payable",
			"type": "receive"
		}
	]
}